:020000040800F2
:10000000D81F0020090500088503000887030008A1
:10001000890300088B0300088D030008000000001E
:100020000000000000000000000000008F03000836
:1000300091030008000000009303000895030008E6
:1000400023050008230500082305000823050008F0
:1000500023050008230500082305000823050008E0
:1000600023050008230500082305000823050008D0
:1000700023050008230500082305000823050008C0
:1000800023050008230500082305000823050008B0
:1000900023050008230500082305000823050008A0
:1000A0002305000823050008230500082305000890
:1000B0002305000823050008733400082305000801
:1000C0002305000823050008230500082305000870
:1000D00023050008511E0008230500082305000819
:1000E0002305000823050008230500082305000850
:1000F0002305000823050008230500082305000840
:10010000230500082305000823050008230500082F
:10011000230500082305000823050008230500081F
:10012000230500082305000823050008230500080F
:1001300023050008230500082305000823050008FF
:1001400023050008230500082305000823050008EF
:1001500023050008230500082305000823050008DF
:1001600023050008230500082305000823050008CF
:1001700023050008230500082305000823050008BF
:10018000230500082305000800F002F800F03FF8FE
:100190000AA090E8000C82448344AAF10107DA45E2
:1001A00001D100F034F8AFF2090EBAE80F0013F0F5
:1001B000010F18BFFB1A43F001031847203D000050
:1001C000403D0000103A24BF78C878C1FAD85207E1
:1001D00024BF30C830C144BF04680C6070470000C1
:1001E0000023002400250026103A28BF78C1FBD840
:1001F000520728BF30C148BF0B607047642903F025
:100200006981002070471FB51FBD10B510BD03F0F8
:10021000EDFA1146FFF7F7FF00F008F803F00BFBCB
:1002200003B4FFF7F2FF03BC01F0B8FD03F0A4F83C
:1002300003F0C2F800F001F94FF4E13001F0B6FD2F
:10024000A82001F04FFD02F0E1FE02F083FC3FA088
:1002500003F034F9DFF8FCA0DFF8FC803F4FAA245C
:10026000DFF8FCB0BB25DFF8FC9003F00EF803F0DC
:1002700033F803F0FAF803F0ACFC3B4A3B4B03F0D5
:10028000BFFC00223A4B03F0BBFC0022394B03F0C9
:1002900019FB03F06FFC384A00214646CAF80000FB
:1002A00052F8213046F82130491C0829F8DB334A3E
:1002B000002106EB810C52F82130491CCCF820308B
:1002C0000829F6DB3064002002F046FA90B30020E3
:1002D00002F042FA13284FF0000034D002F03CFA4A
:1002E0001728C2D18BF800408BF8015002205B46E2
:1002F0004FF0FF3C386000EBD0710CEB610136F839
:1003000021100A121A541A18801C517038602428BF
:10031000F1DB83F824508BF82540D9F800004E46D5
:100320000128A2D126220E49002001F03AFF002028
:1003300030609AE7FFE7124820230121028800205D
:1003400001F04CFE91E701F091FE8EE7494E5420FA
:100350006F6B0000000000207C00002038000020AF
:10036000D6080020780000204AD8124DFB21094011
:100370000080514000C092403419002054190020E0
:10038000500000207047FEE7FEE7FEE7FEE77047FB
:1003900070477047704700000CB500225149009229
:1003A0000192086840F4803008604FF4A043086868
:1003B00000F4003001900098401C0090019810B9A2
:1003C00000989842F3D10868800334D50120019049
:1003D00044484030026842F080520260424802685D
:1003E00042F4404202603F480830026802600268FE
:1003F00042F400420260026842F4A0520260031F0D
:100400003A4A1A600A6842F080720A600A689201E9
:10041000FCD5374940F205720A60016821F00301FA
:100420000160016841F0020101600168C1F38101CE
:100430000229FAD10CBD01920CBD2A4810B5016801
:1004400041F001010160274A002108321160026871
:10045000284B1A400260031D274A1A60026822F4E2
:10046000802202601F480C300160FFF795FF23498E
:100470004FF00060086010BD70B51A4D083528684F
:100480001F4B204910F00C0004D05E10042803D04C
:10049000082803D00B601BE00E6019E0114A121D02
:1004A0001068C0F38054106800F03F0014B1B6FB30
:1004B000F0F001E0B3FBF0F013681268C3F38813A7
:1004C0005843C2F30142521C5200B0FBF2F00860E4
:1004D00028680C4AC0F30310121D105C0A68C24061
:1004E0000A6070BD003802400070004008544007A8
:1004F000003C0240FFFFF6FE1030002408ED00E053
:100500000024F400040000200948804709480047FF
:10051000FEE7FEE7FEE7FEE7FEE7FEE7FEE7FEE7B3
:10052000FEE7FEE704480549054A064B7047000010
:100530003B04000889010008D8190020D81F0020BA
:10054000D81B0020D81B00202849084328490860F0
:10055000704730B50F23C27801780125FAB1244ADB
:10056000126801F1E02102F4E062C2F5E062C2F338
:100570000722C2F10404D3404278A24084781C4090
:100580001443220181F80024007800F01F018D40FF
:100590004009800000F1E020C0F8005130BD01F0BA
:1005A0001F0085404809800000F1E020C0F880511C
:1005B00030BD104A114001430D48001F01607047D3
:1005C0000B4A121D0029116801D0014300E081434C
:1005D000116070474FF0E0210428086903D020F033
:1005E00004000861704740F00400FAE70000FA05D3
:1005F0000CED00E080FFFF1F774910B5884206D15F
:100600000121084600F099FA002101205BE07349BE
:10061000884206D10121022000F08FFA0021022039
:1006200051E06F49884206D10121042000F085FA8B
:100630000021042047E06B49884206D101210820AF
:1006400000F07BFA002108203DE06749884206D18E
:100650000121102000F071FA0021102033E06349DD
:10066000884206D10121202000F067FA00212020D5
:1006700029E05F49884206D10121402000F05DFA5F
:10068000002140201FE05B49884206D101218020E3
:1006900000F053FA0021802015E05749884202D12A
:1006A000012184150AE05549884202D101214415EF
:1006B00004E0534988420AD101210415204600F084
:1006C0003CFA00212046BDE8104000F036BA10BDCB
:1006D000F0B5002201274FF0030C0B6807FA02F572
:1006E0002B40AB422CD1066853000CFA03F4A6430E
:1006F00006600E79D0F800E09E4046EA0E060660DD
:100700000E79012E01D0022E12D18668A643866092
:100710004E79D0F808E09E4046EA0E0686604668AC
:10072000AE43466045688E799640B6B23543456023
:10073000C568A543C560CC799C40C3681C43C460B0
:10074000521C102AC9D3F0BD4FF6FF710160002181
:10075000017141718171C171704708B541F48032F6
:100760000092C261C1610099C161C169C069009014
:1007700008BD0246002012690A4200D001207047DD
:10078000006980B270470246002052690A4200D0D8
:1007900001207047406980B27047018370474183F0
:1007A00070470AB1018370474183704741617047C8
:1007B00042694A40426170474B07DB0E9A40C908C4
:1007C00010B500EB8100016A0F249C40A143016237
:1007D000016A1143016210BD0000024000040240A2
:1007E00000080240000C02400010024000140240C9
:1007F00000180240001C0240002002400024024079
:1008000000280240F848016841F001010160F64A01
:100810000021083211600268F44B1A400260031D87
:10082000F34A1A60F04BF34A84331A60F04A103AE4
:100830001B1D1A60026822F480220260EA480C3014
:100840000160181D01607047E7490022891C0A7089
:100850000870704702460020510901290CD0022976
:100860000CD0E1497431096802F01F020123934062
:100870000B4200D001207047DB49F4E7DA497031C0
:10088000F1E718B500204FF4A04400903120FFF7A5
:10089000E1FF0099491C0091A14201D00028F5D048
:1008A0003120FFF7D7FF002800D0012018BDCE4A25
:1008B000116821F0F80141EAC00010607047CE498C
:1008C00008607047C849002270310A700A70012818
:1008D00002D0042801D1052008707047C74908607C
:1008E000704741EA82115A0810B5C54B029C03EBD0
:1008F00002421143014341EA0460BB49091D0860FB
:1009000010BDBD4908667047800140EA0170B649D4
:10091000843108607047B84988667047800140EAB2
:100920000160B14940EA0270883108607047B249FD
:1009300008677047B049C8647047AB4B08331A6802
:10094000084322F0EC62104318607047A64B08334E
:100950001A68084322F07842104318607047A24A90
:100960000832116821F003010143116070479E486D
:100970000830006800F00C0070479B4A083211688C
:1009800021F0F001014311607047974A0832116865
:1009900021F4E051014311607047934A0832116815
:1009A00021F4604141EAC0001060704770B58E4B81
:1009B00008331968934C11F00C0104D06610042917
:1009C00003D0082903D004601BE0066019E0864AC2
:1009D000121D1168C1F38055116801F03F0115B176
:1009E000B6FBF1F101E0B4FBF1F114681268C4F355
:1009F00088146143C2F30142521C5200B1FBF2F170
:100A0000016019680F2202EA11117F4A545C0168E3
:100A1000E14041601C68072505EA9424145D21FA31
:100A200004F484601B6805EA5333D25CD140C16092
:100A300070BDC0F30121032908D16B4B083319683D
:100A4000724A21F4F81102400A431A606649703173
:100A50000A68C0F30B0002430A60704767494439D3
:100A60000860704765494039086070476249C1F8BD
:100A70005C0170475C4A8C321168401E21F01F01F6
:100A8000014311607047584A8C3211686FF0FF03C0
:100A900021F4F85103EB0020084310607047524ADC
:100AA0008C32116821F440110143116070474E4AA5
:100AB0008C32116821F440010143116070474A4AA9
:100AC0008C32116821F44031014311607047504964
:100AD000C1F8E0017047444A30320029116801D062
:100AE000014300E08143116070473F4A34320029DE
:100AF000116801D0014300E08143116070473A4A18
:100B000038320029116801D0014300E081431160AF
:100B10007047354A40320029116801D0014300E096
:100B2000814311607047304A44320029116801D076
:100B3000014300E08143116070472B4A10320029C5
:100B4000116801D0014300E0814311607047264ADB
:100B500014320029116801D0014300E08143116083
:100B60007047214A18320029116801D0014300E082
:100B70008143116070471C4A20320029116801D05E
:100B8000014300E0814311607047174A2432002975
:100B9000116801D0014300E0814311607047124A9F
:100BA00050320029116801D0014300E081431160F7
:100BB00070470D4A54320029116801D0014300E00A
:100BC000814311607047084A58320029116801D0EA
:100BD000014300E0814311607047034A60320029FD
:100BE000116817D0014316E000380240FFFFF6EA13
:100BF000103000240030002000004742800E4742A1
:100C00000000FFFF0024F40018000020FFFCFF0F8D
:100C100000104742814311607047194A002911684A
:100C200001D0014300E081431160704714490C3149
:100C30000128086803D020F008000860704740F0E1
:100C40000800FAE70E4A573A0029117801D001430B
:100C500000E081431170704709481030016841F08D
:100C60008071016070470146054A0020583A1268B9
:100C70000A4200D001207047014956390870704778
:100C800064380240C14910B5884202D10121841460
:100C900024E0BF49884202D10121041404E0BD4987
:100CA00088420AD10121C4132046FFF764FF204681
:100CB000BDE810400021FFF75EBFB749884202D16E
:100CC000012144140AE0B549884202D101210C05F2
:100CD00004E0B34988420AD101214C052046FFF7C0
:100CE00054FF2046BDE810400021FFF74EBF10BD65
:100CF00030B502884C8802F441530A88CD882243DB
:100D00008C882C4322430C8922434C8922438C89B2
:100D10002243CC8922431A430280828B22F4006250
:100D20008283098A018230BDF0B502220023858BBF
:100D300001244FF24006354085830284868B8D68FE
:100D4000022D3DD08A8802B10224964A13681B0204
:100D500003D5136823F400031360924A7C321368AE
:100D60001268C3F388138F4FC2F302723F1F3D68AE
:100D70003F6805F03F057F0201D58B4F00E08B4FA8
:100D8000B7FBF5F55D43B5FBF2F2CB88B3F5007F19
:100D90002BD06301B2FBF3F202EB82028B685200AC
:100DA000B2FBF3F2521D92B20A23B2FBF3F202F04D
:100DB0000103D21A4FF6FF74C2F34F0204EA032371
:100DC000941EFE2C01D302220023CC881A43144324
:100DD00004840A884B881A438B8889890B431A43F9
:100DE000324342F400618183F0BD120AD4E700214E
:100DF000018041808180C180018141818181C181E7
:100E00000721018270470021018041808180C180DB
:100E100002228260818170470029018802D041F05E
:100E2000400101E021F04001018070470029818BE1
:100E300002D041F4806101E021F480618183704738
:100E4000028822F40062028002880A43028070470E
:100E5000B1F5804F018803D021F4804101807047B3
:100E600041F48041FAE7A1F57E420188FF3A02D0C1
:100E700041F4807101E021F4807101807047002904
:100E8000818802D041F0040101E021F00401818059
:100E900070470029818802D041F0100101E021F063
:100EA00010018180704730B5828B00234FF24004DF
:100EB0002240828302220284848B0A884FF4807548
:100EC000B2F5007F00D002B92B464A888D88898907
:100ED0002A4319430A43224342F40061818330BD0F
:100EE00080897047818170470029018802D041F4D0
:100EF000005101E021F4005101807047018841F464
:100F0000805101807047012901D0008B7047808A91
:100F10007047008A7047002A828801D00A4300E0A7
:100F20008A4382807047090901238B40002A828806
:100F300099B201D00A4300E08A438280704702469A
:100F4000002012890A4200D001207047C943018164
:100F5000704730B501F00F030125024605FA03F48E
:100F60000020A3B2090905FA01F49188A4B21289FC
:100F700021401A4202D0002900D0012030BD01F0EA
:100F80000F0201219140C9430181704700300140A7
:100F900000380040003C0040003401400050014057
:100FA000005401400838024000127A000024F40086
:100FB000FE4910B5884206D101210846FFF7E5FD3C
:100FC000002101205BE0B0F1804F09D0F849884250
:100FD0000DD101210220FFF7CEFD0021022070E09B
:100FE00001210846FFF7C7FD0021012069E0F14912
:100FF000884206D101210420FFF7BDFD0021042015
:101000005FE0ED49884206D101210820FFF7B3FDDA
:101010000021082055E0E949884206D1012110202D
:10102000FFF7A9FD002110204BE0E549884206D1D9
:1010300001212020FFF79FFD0021202041E0E14910
:10104000884206D101210220FFF79FFD00210220E6
:1010500015E0DD49884202D101210C040AE0DB4998
:10106000884202D101214C0404E0D94988420AD1C6
:1010700001218C042046FFF788FD00212046BDE8B1
:101080001040FFF782BDD349884206D1012140209C
:10109000FFF771FD0021402013E0CF49884206D1BF
:1010A00001218020FFF767FD0021802009E0CB4966
:1010B00088420AD1841501212046FFF75CFD0021FA
:1010C0002046BDE81040FFF756BD10BD30B5028880
:1010D000B64CBC4DA0420DD0A8420BD0B0F1804F11
:1010E00008D0B34B984205D0B24B984202D0B24BD5
:1010F000984203D122F070034A881A43AF4B9842BA
:1011000006D0AF4B984203D022F440730A891A43A9
:1011100002804A68C2620A880285A04201D0A842C1
:1011200001D1897A01860121818230BD4FF0FF31E2
:1011300041600021018001814180817270470185F9
:1011400082827047028822F070020A430280704750
:1011500041627047C1627047406A7047008D7047B6
:101160000029018802D041F0020101E021F00201D2
:10117000018070470029018802D041F0040101E09C
:1011800021F00401018070470029018802D041F05C
:10119000800101E021F0800101807047028822F087
:1011A0000802028002880A4302807047028822F403
:1011B0004072028002880A43028070470029018839
:1011C00002D041F0010101E021F0010101807047EE
:1011D00030B5028C22F001020284028C8388048BD9
:1011E00022F0020224F073050C882C438D891543EC
:1011F0004A882A436D4DA84202D0724DA8420DD1B3
:1012000022F00805CA8923F440732A4322F004051A
:101210008A882A430D8A1D434B8A2B43838004838B
:1012200089684163028430BD70B5028C22F01002DF
:101230000284028C8388048B0D8824F4E6464FF6E2
:10124000FF7404EA052535438E8922F0200204EA62
:10125000061616434A8804EA02123243534EB0423D
:1012600002D0584EB04215D122F08006CA8923F42C
:10127000406304EA0212324322F040068A8804EAFC
:10128000021232430E8A04EA86061E434B8A04EA9F
:10129000830333438380058389688163028470BD3F
:1012A00070B5028C22F480720284028C8388848B55
:1012B0000D8824F0730425438E894FF6FF7422F4C1
:1012C000007204EA062616434A8804EA02223243E0
:1012D000364EB04202D03B4EB04215D122F40066E9
:1012E000CA8923F4405304EA0222324322F480667E
:1012F0008A8804EA022232430E8A04EA06161E4352
:101300004B8A04EA03133343838085838968C1636E
:10131000028470BD70B5028C22F480520284058C68
:101320008288838B0C8823F4E6464FF6FF7303EA2A
:101330000424344325F400568D8903EA05353543EA
:101340004E8803EA06362E43184DA84202D01D4DA2
:10135000A84205D122F480450A8A03EA82122A4370
:101360008280848389680164068470BD00210180C5
:101370004180818081608181C18101824182704789
:1013800030B50124058C00F118038C40A543058479
:1013900031B308292CD0091FC1F34E00184401684D
:1013A00048F6FF731940016001681AE0000001402F
:1013B0000004004000080040000C00400010004005
:1013C000001400400004014000400140004401407E
:1013D0000048014000180040001C00400020004070
:1013E00006E04FF6FF7303EA02221143016030BDAD
:1013F00003EB510001684FF68F73194001600168DB
:10140000F3E74163704781637047C16370470164CC
:101410007047028B22F070020A4302837047028BEE
:101420004FF6FF7322F4E04203EA012111430183E6
:101430007047828B22F070020A4382837047828B4E
:101440004FF6FF7322F4E04203EA01211143818346
:101450007047028B22F008020A4302837047028B16
:101460004FF6FF7322F4006203EA01211143018366
:101470007047828B22F008020A4382837047828B76
:101480004FF6FF7322F4006203EA012111438183C6
:101490007047028B22F004020A4302837047028BDA
:1014A0004FF6FF7322F4806203EA012111430183A6
:1014B0007047828B22F004020A4382837047828B3A
:1014C0004FF6FF7322F4806203EA01211143818306
:1014D0007047028B22F080020A4302837047028B1E
:1014E0004FF6FF73C2F30E0203EA01211143018399
:1014F0007047828B22F080020A4382837047828B7E
:101500004FF6FF73C2F30E0203EA012111438183F8
:101510007047028C22F002020A4302847047028C58
:1015200022F008020A4302847047028C4FF6FF73D0
:1015300022F0200203EA0111114301847047028C5A
:101540004FF6FF7322F0800203EA01111143018478
:101550007047028C4FF6FF7322F4007203EA0121F8
:10156000114301847047028C4FF6FF7322F400622E
:1015700003EA0121114301847047028C4FF6FF7387
:1015800022F4005203EA013111430184704710B57F
:101590000123048C8B409C430484038C8A401343B6
:1015A000038410BD10B50423048C8B409C43048439
:1015B000038C8A401343038410BD828B22F4406263
:1015C0008283828B4FF6FF7303EA01210A438283F1
:1015D0007047828B22F00C028283828B0A438283C3
:1015E0007047028B22F440620283028B4FF6FF7336
:1015F00003EA01210A4302837047F0B5048C24F00A
:1016000010040484078B068C4FF6FF7404EA01155E
:1016100027F4734704EA0331394304EA02220A43F8
:1016200026F0A001294341F0100102830184F0BD9E
:10163000028B22F00C020283028B0A430283704762
:101640002DE9F0410C460E884988A2882389054679
:101650000EB3042E26D0082E2E8C4FF6FF7028D005
:1016600026F480562E84AF8B2E8C00EA022200EAEC
:10167000013127F473473A4300EA0330104326F45C
:1016800020420A4342F48051A8832984E1882846F5
:10169000BDE8F04191E700F062F9E1882846BDE835
:1016A000F041C5E7FFF7A9FFE1882846BDE8F04112
:1016B00097E726F480762E84AF8B2E8C00EA0121EA
:1016C00000EA0310104327F0F307384326F42062A2
:1016D0000A4342F48071A8832984E1882846BDE842
:1016E000F04176E700210180418001228280C180A3
:1016F000018170472DE9F0410C46002649880746D4
:10170000012501B90226A288012A00D102252088DC
:1017100023890028384610D0FFF76FFFE18838464C
:10172000FFF75FFF23892A463146384600F017F954
:10173000E1883846BDE8F0417AE700F010F9E18829
:101740003846FFF775FF23892A4631463846FFF7AA
:1017500054FFE1883846BDE8F04142E7406B7047EE
:10176000806B7047C06B7047006C704710B50A887B
:101770004B88CC881A438B8823431A430B891A431E
:101780004B8989891A430A43A0F8442010BD0021DF
:10179000018041808180C1800181418181817047C8
:1017A000002930F8441F02D041F4004101E0C1F3A8
:1017B0000E01018070470029818802D041F00401A8
:1017C00001E021F00401818070470029818802D066
:1017D00041F0010101E021F0010181807047002A00
:1017E000828901D00A4300E08A4382817047818266
:1017F000704702460020128A0A4200D0012070473A
:10180000C9430182704702460020138A92890B4225
:1018100002EA010202D0002A00D001207047C94329
:10182000018270471143A0F848107047002A82894E
:1018300001D00A4300E08A438281704700298188F1
:1018400002D041F0080101E021F0080181807047D9
:10185000018921F0070101817047028922F070029D
:101860000A430281704700B50346FFF7F6FF188967
:1018700040F00700188100BD70B516460D4660297E
:1018800004464FF0010231460AD000F068F82946BC
:101890002046FFF7E2FF208940F00700208170BD5D
:1018A000FFF7ABFEF3E730B504894FF6FF7505EAA5
:1018B00003231343E4B20B432343038130BD10B52C
:1018C0000446FFF7F0FF208940F07700208110BD2B
:1018D00010B50446FFF7E7FF208940F480402081DF
:1018E00010BD828822F07002828082880A43828042
:1018F0007047028922F00702028102890A430281AD
:101900007047028922F08002028102890A43028123
:10191000704770B50589048B068C25F007050D43CB
:101920004FF6FC410C4040F201110C434FF6FF71A1
:1019300001EA031126F02206114331430581048395
:10194000018470BD0029818802D041F0800101E04E
:1019500021F0800181807047A0F85010704770B569
:10196000048C24F001040484058B048C4FF6FF766C
:1019700006EA0313134325F0F3052B4324F00A0270
:101980000A4342F001010383018470BDCD4910B5C3
:10199000884206D101211020FFF7F7F8002110201E
:1019A00020E0C949884202D101214C0429E0C749FD
:1019B000884202D101218C0423E0C549884202D12A
:1019C0000121CC041DE0C349884202D101210C054C
:1019D00017E0C149884209D101212020FFF7D5F83D
:1019E00000212020BDE81040FFF7CFB8BB49884256
:1019F00002D101218C0704E0B94988420AD10121B2
:101A000044052046FFF7B7F82046BDE81040002106
:101A1000FFF7B1B810BD7FB50446008A0D46C988EE
:101A200020F4405001432182A08941F20C61884397
:101A3000A9882A8911436A8902431143A181A08A96
:101A400020F44071A8890843A0826846FEF7AEFFE3
:101A50009C48844202D0A048844201D1039800E00F
:101A60000298A189090400EBC00101EB001029686C
:101A700001D5490000E08900B0FBF1F06422B0FB21
:101A8000F2F109010B096FF018056B4300EB8300BD
:101A9000A3891D044FF0320306D503EBC000B0FB51
:101AA000F2F000F0070005E003EB0010B0FBF2F0ED
:101AB00000F00F00084320817FBD4FF416510160F4
:101AC00000218180C18001810C2242818181704787
:101AD00010B5028A4C8822F470630A8822438C88ED
:101AE000C9880C4322431A43028210BD00210180A1
:101AF00041808180C18070470029818902D041F4F2
:101B0000005101E021F4005181817047028B02F401
:101B10007F420283028B0A43028370470029818936
:101B200002D041F4004101E0C1F30E018181704710
:101B30000029818A02D041F4006101E021F40061B2
:101B400081827047C1F30801818070478088C0F3AB
:101B500008007047028A22F00F020282028A0A43BA
:101B6000028270470029818902D041F0020101E020
:101B700021F0020181817047828922F40062828112
:101B800082890A4382817047028A22F020020282FF
:101B9000028A0A43028270470029018A02D041F476
:101BA000804101E021F4804101827047818941F048
:101BB0000101818170470029818A02D041F008012A
:101BC00001E021F0080181827047028BD2B20283CA
:101BD000028B42EA0121018370470029818A02D0E9
:101BE00041F0200101E021F02001818270470029AD
:101BF000818A02D041F0100101E021F010018182C0
:101C00007047828A22F004028282828A0A43828298
:101C100070470029818A02D041F0020101E021F0E1
:101C2000020181827047002A828A01D00A4300E0C3
:101C30008A438282704710B5C1F3421301F01F043A
:101C40000121A140012B07D0022B07D01430002A1C
:101C5000026805D00A4304E00C30F8E71030F6E7DC
:101C60008A43026010BD0246002012880A4200D05A
:101C700001207047C9430180704770B501F01F050E
:101C800001260024C1F3421306FA05F2012B0FD0FE
:101C9000022B0FD0838A4FEA11210088134206FAE3
:101CA00001F600EA060001D000B10124204670BD13
:101CB0008389F0E7038AEEE70A0A01219140C943CC
:101CC000018070470010014000440040004800407F
:101CD000004C0040005000400014014000780040DB
:101CE000007C004010B504466FF00400FEF772FC63
:101CF0002949E00800EB40020870C2EBC0104FF623
:101D0000FF7202EAC000488010BD234909784843A9
:101D10004FF0E021486100238B61086940F0010029
:101D200008610869C20701D0C003FAD5086920F02C
:101D3000010008618B6170471749498848434FF09B
:101D4000E021486100238B61086940F001000861CF
:101D50000869C20701D0C003FAD5086920F0010064
:101D600008618B61704770B54FF40776B0FBF6F1F0
:101D7000CCB2B0FBF6F106FB110504E03046FFF7EC
:101D8000DBFF641EE4B2002CF8D1002D03D02846FE
:101D9000BDE87040D0E770BD28000020704743497F
:101DA0000A885206FCD5C2B28A807047F0B5064652
:101DB000012187B00846FEF78EFE01211020FEF7B4
:101DC000B2FE3B4D072209212846FEF7F5FC07220B
:101DD0000A212846FEF7F0FC02218DF814108DF838
:101DE00015104FF4C060002404908DF816400127B0
:101DF0008DF8177004A92846FEF76AFCADF8044078
:101E0000ADF80640ADF80840ADF80C400C20274C6A
:101E1000ADF80A00009669462046FFF7FCFD012157
:101E20002046FFF769FE012240F225512046FFF7C8
:101E300002FF25208DF8180003208DF819008DF879
:101E40001A008DF81B7006A8FEF783FB07B0F0BDE3
:101E500070B5164C40F225512046FFF70EFF0028C2
:101E60000ED02046FFF772FE124AC1B2108803045A
:101E700006D444044FF0000306D50A2901D013808C
:101E800070BD40F400400EE00D290AD0C0F30D04EF
:101E9000084D401CAD1C80B2295510800528EED895
:101EA00070BD40F48040108070BD00000010014003
:101EB000000002402C00002070B5012188B00846C7
:101EC000FEF709FE01210803FEF72DFE354E05221F
:101ED00007213046FEF770FC052206213046FEF74A
:101EE0006BFC052211463046FEF766FCE0200590AB
:101EF00003208DF8190002208DF8180000248DF8B9
:101F00001A408DF81B0005A93046FEF7E1FB0122BF
:101F10008DF818204FF400458DF81A4005958DF87E
:101F20001B2005A93046FEF7D3FB29463046FEF7B5
:101F300034FCADF800404FF48270ADF80200ADF80B
:101F40000840ADF80C40ADF80440A811ADF80640CB
:101F5000ADF80A00ADF80E400720134CADF81000A4
:101F600069462046FEF7C4FE01212046FEF754FFD5
:101F700008B070BD0C490A899207FCD58881088990
:101F8000C007FCD08889C0B270470748018989071B
:101F9000FCD5FF2181810189C907FCD08089C0B2AD
:101FA00070470000000002400030014070B5054657
:101FB0004FF4847000EB45141021204600F0F9FD29
:101FC000204600F011FE0028FAD14FF4027000EB19
:101FD0004510BDE87040FF2100F0EBBD2DE9F04158
:101FE000044601F00F001F4615460E4601280AD090
:101FF000022808D0032806D0042804D0052802D0DF
:102000000020BDE8F0812046FFF7D0FF082046EA17
:10201000070100EB441000F0CCFD4FF481604FF459
:10202000A16100EB441001EB441625B1290A00F030
:10203000C0FDE9B208E0FD4D2988491C89B229801C
:10204000090A00F0B6FD2978304600F0B2FD4FF4E1
:10205000847000EB44140121204600F0AAFD2046C4
:1020600000F0C2FD0028FAD10120CAE710B50446ED
:102070004FF4427000EB441000F0B6FD132801D07D
:10208000002010BD4FF4847000EB44140221204660
:1020900000F08FFD204600F0A7FD0028FAD10120B6
:1020A00010BD2DE9F0410C46097817460546FF2979
:1020B00001D051B10FE06078FF280CD1A078FF2843
:1020C00009D1E078FF285AD005E0607818B9A078E7
:1020D00008B9E078E8B3E7B340F60840012600EB22
:1020E000451000F066FD40F60850617800EB4510A1
:1020F00000F05FFD40F60860A17800EB451000F0AD
:1021000058FD40F60870E17800EB451000F051FDF5
:1021100041F20800390A00EB451000F04AFD41F297
:102120000810F9B200EB451000F043FD4FF4847045
:1021300000EB45140421204600F03BFD204600F052
:1021400053FD0028FAD14FF4427000EB45142046AD
:1021500000E014E000F048FD152811D0204600F002
:1021600043FD17280CD0284600F0EAFA0007EED508
:102170004FF4027000EB4510082100F01AFD002614
:1021800030463EE710B54FF4847101EB401408214E
:10219000204600F00EFD204600F026FD0028FAD172
:1021A00010BD2DE9F04116460F46804600F058FA62
:1021B000B04203D2404600F053FA06464FF4427153
:1021C00001EB4815404600F0CDFA0446284600F0E1
:1021D0000BFD172803D01C2801D0002601E0B442D3
:1021E000F0D332463946404600F007FB4FF4847185
:1021F00001EB48142021204600F0DBFC204600F0D3
:10220000F3FC0028FAD14FF4027101EB481738466D
:1022100000F0EAFCC00634D4284600F0E5FC28466D
:1022200000F0E2FC04461728F1D01C2CEFD0014648
:102230007FA001F043F9152C19D006DC002C1ED02C
:10224000132C0AD0142C06D109E0162C11D01A2C0C
:1022500011D01B2C11D080A002E085A000E08BA043
:1022600001F02CF94046FFF7A1FE0020C9E68FA03F
:10227000F6E796A0F4E79EA0F2E7A5A0F0E7ACA0F1
:10228000EEE73846102100F094FC3846102100F0AB
:1022900090FC3046B5E670B5044615004FF00000DE
:1022A00010D0204600F0DDFA4FF4847000EB4414A7
:1022B0004021204600F07DFC204600F095FC0028DF
:1022C000FAD1284670BD2DE9F0411D4616468846D4
:1022D0000446069F00F0C4F9B04203D2204600F045
:1022E000BFF90646297829B9687818B9A87808B9D5
:1022F000E878E0B3DFB340F6084000EB441000F0AC
:1023000058FC40F60850697800EB441000F051FC8E
:1023100040F60860A97800EB441000F04AFC40F653
:102320000870E97800EB441000F043FC41F208002B
:10233000390A00EB441000F03CFC41F20810F9B2FD
:1023400000EB441000F035FC32464146204600F0D8
:1023500054FA4FF4847000EB44152021284600F015
:1023600028FC284600F040FC0028FAD100E013E0E9
:102370004FF4027000EB4414204600F035FCC00618
:1023800020460BD400F030FC0007F5D5204618217C
:1023900000F00FFC002034E6002602E0102100F0DF
:1023A00008FC30462DE62DE9FF4F83B00024DDF810
:1023B00040A01D460646002A35D042F6080000EB34
:1023C0004610814600F010FC074642F6081000EB6C
:1023D0004610804600F008FC00EB072087B2380268
:1023E00000EB461000F1180B082000EB461000F03F
:1023F000FBFB00F00700022804D0032814D00428B7
:1024000013D1F4E008226946584600F031FC9DF8EB
:10241000000028709DF80100687008379DF80200E0
:10242000BFB2A87094E0DEE0A4E0CFE0500000204E
:1024300053454E445F4F4B2050726F626C656D2167
:10244000212043757272656E7420737461747573A4
:102450003A2025640D0A0000556E6B6E6F776E2072
:10246000736F636B65742073746174652E0D0A005D
:10247000536F636B657420697320696E20494E4900
:10248000542073746174652E0D0A0000536F636BE2
:10249000657420697320696E204C495354454E2061
:1024A00073746174652E0D0A00000000536F636B36
:1024B000657420697320696E2053594E5F53454EF1
:1024C000542073746174652E0D0A0000536F636BA2
:1024D000657420697320696E2053594E5F524543DD
:1024E00045495645442073746174652E0D0A0000F9
:1024F000536F636B657420697320696E20434C4F82
:1025000053494E472073746174652E0D0A00000014
:10251000536F636B657420697320696E2054494D55
:10252000455F574149542073746174652E0D0A004C
:10253000536F636B657420697320696E20434C4F41
:102540005345442073746174652E0D0A0000000029
:102550009DF80300E8709DF80400AAF800009DF8BB
:10256000051001EB0020AAF800009DF806009DF878
:10257000071016E006226946584600F079FB9DF8E0
:10258000000028709DF8010068709DF80200A87096
:102590009DF80300E870BF1D9DF804009DF805102C
:1025A000BFB201EB002084B2380200EB4610224695
:1025B0001830049900F05CFB381985B2290A4846A6
:1025C00000F0F7FAE9B2404600F0F3FA4FF48470F5
:1025D00000EB46154021284600F0EBFA284600F0B3
:1025E00003FB0028FAD107B02046BDE8F08F022295
:1025F0006946584600F03CFB9DF800009DF801102C
:102600006FF0010202EB00200844BF1C84B240F2CC
:10261000EA50BDB2844203D906A000F04FFFFEE7A6
:10262000280200EB461022461830049900F020FBE7
:102630002819C2E7646174615F6C656E206F76650E
:102640007220313531340D0A0000000001460020AF
:1026500000F0AFBA8020F9E7CD4931F8100070479B
:10266000CB49103931F8100070470422014690011F
:1026700000F0D4BA04220146900100F0F9BA0146F4
:1026800004224FF4A06000F0C9BA014606224FF4BC
:10269000106000F0C3BA014604224FF4706000F0ED
:1026A000BDBA014604224FF4A06000F0E1BA014631
:1026B00006224FF4106000F0DBBA014604224FF40A
:1026C000706000F0D5BA4FF4A85000F08DBA10B584
:1026D0000446010A4FF4C85000F06BFAE1B2BDE8BD
:1026E00010404FF4D05000F064BA01464FF4D85077
:1026F00000F05FBA10B50446FFF7E5FF60EA04009A
:10270000C1B2BDE810404FF4A85000F052BA70B505
:1027100005460C4641F20820090A00EB451000F07E
:1027200048FA41F20830E1B200EB4510BDE87040D4
:1027300000F03FBA41F2086202EB401000F039BAF3
:102740004FF4027101EB401000F04EBA4FF40272E8
:1027500002EB401000F02DBA4FF4427101EB401033
:1027600000F042BA2DE9F04142F2080101EB4016B7
:1027700042F20811002701EB4015304600F034FA10
:102780000446284600F030FA00EB04200404240C30
:1027900009D0304600F028FA0746284600F024FA0F
:1027A00000EB072087B2A742E7D13846BDE8F081A9
:1027B0002DE9F04142F2086101EB401642F2087146
:1027C000002701EB4015304600F00EFA044628467B
:1027D00000F00AFA00EB04200404240C09D030466F
:1027E00000F002FA0746284600F0FEF900EB072049
:1027F00087B2A742E7D13846D8E72DE9F0475FEA2C
:1028000002088946044626D042F2084000EB4417ED
:10281000384600F0E9F9054642F2085000EB44164C
:10282000304600F0E1F900EB052085B2280200EB0C
:10283000441042464946103000F0F0F905EB08001C
:1028400084B2210A384600F0B4F9E1B23046BDE85E
:10285000F04700F0AEB92146BDE8F0474DA000F0CA
:102860002DBE2DE9F0475FEA02088946044626D0CE
:1028700042F6080000EB4417384600F0B5F905466B
:1028800042F6081000EB4416304600F0ADF900EBBC
:10289000052085B2280200EB441042464946183014
:1028A00000F0E6F905EB080084B2210A384600F092
:1028B00080F9E1B23046BDE8F04700F07AB9214630
:1028C000BDE8F0473BA000F0F9BD2DE9F05F002620
:1028D000DFF8BCA0DFF8B8B00F4680463546344676
:1028E0004FF6FF79AAF1100A41F6087018F80410A3
:1028F00000EB441000F05DF941F60860395D00EB33
:10290000441000F056F900222AF814204FF48043B6
:10291000504659462BF814209E4205DC18F804C096
:1029200009EA8C2220F814209D4204DC3B5D09EA70
:10293000832221F814203AF8140006443BF81400CE
:10294000641C0544082CCFDBBDE8F09F4FF43850E1
:1029500000F04AB970B5FFF7F9FF10F0010F15D17B
:102960001CA000F0ABFD4FF4FA75FFF7EFFF00F08D
:1029700001041FA000F0A2FD2846FFF7F4F9002C87
:10298000F3D0BDE870401BA000F098BD70BD000002
:10299000E618002043483A20256420556E6578707B
:1029A000656374656431206C656E67746820300DF2
:1029B0000A00000043483A20256420556E6578706F
:1029C000656374656432206C656E67746820300DD1
:1029D0000A000000200D0A20C7EBBCECB2E9CDF8DC
:1029E000CFDFCAC7B7F1C1ACBDD33F0D0A000000AD
:1029F000202E00000D0A000038B5C54CC34D206ADA
:102A00002860A08CA880D4F80600C5F80600D4F889
:102A10000A00C5F80A00D4F80E00C5F80E00D4F874
:102A20001200C5F81200207810B9BAA000F046FDD7
:102A30002078012808D1607801283FD0BDA000F09F
:102A40003DFDC4A000F03AFD0120A8760020E87604
:102A5000AE480A30FFF713FEAC480E30FFF705FE14
:102A6000A81DFFF718FEAA48801DFFF726FEA848FC
:102A7000801DC1780091837842780178BDA000F074
:102A80001DFDA3480A30FFF70CFEA1480A30C178AB
:102A90000091837842780178BEA000F00FFD9C4839
:102AA0000E30FFF7E7FD9A480E30C1780091837829
:102AB00042780178BFA000F001FD38BDC5A000F04C
:102AC000FDFCC84850F8061FC5F806104168C5F857
:102AD0000A108168C5F80E10C068C5F81200B3E787
:102AE00010B58B4C8948216A0160A18C8180FFF769
:102AF000CCFDBC48216A0160A18C818010BD2DE90C
:102B0000FC4101210820FDF7E6FF02248DF8054075
:102B10000127DFF8D4824FF480768DF80470002509
:102B200000968DF8065069464046FDF7D1FD3146C6
:102B30004046FDF732FE8DF805408DF804508DF8C3
:102B4000065000948DF807706946A848FDF7C0FD4F
:102B5000BDE8FC8110B5FFF7AFF9FFF7D0FFFFF735
:102B6000F9FEFFF7BDFFFFF747FFA149A148FFF7B7
:102B7000ACFEA1A000F0A2FC65488188AEA000F0E8
:102B80009DFCBDE81040B3A000F098BC964A4FF4FD
:102B9000004120B1012805D11046FDF7FEBD1046C9
:102BA000FDF7FDBD70470020F0E70120EEE7FFF7DD
:102BB000E1B970B504460D460020FFF7E7FFC4F306
:102BC0000740FFF7D7F9C4F30720FFF7D3F904F064
:102BD000F800001DC0B2FFF7CDF92846FFF7CAF98B
:102BE000BDE870400120D1E710B504460020FFF792
:102BF000CDFFC4F30740FFF7BDF9C4F30720FFF78B
:102C0000B9F904F0F800FFF7B5F90020FFF7CFFF9E
:102C100004460120FFF7BAFF204610BD2DE9F04120
:102C200015000E4607464FF0000402D199A000F0AF
:102C300045FC0020FFF7AAFFC7F30740FFF79AF90A
:102C4000C7F30720FFF796F907F0F800001DC0B2A0
:102C5000FFF790F904E0305DFFF78CF9641CA4B233
:102C6000AC42F8D30120FFF791FF2846BDE8F08180
:102C70002DE9F04115000E4607464FF0000402D141
:102C800084A000F01BFC0020FFF780FFC7F3074083
:102C9000FFF770F9C7F30720FFF76CF907F0F800AA
:102CA000FFF768F905E00020FFF781FF3055641C4D
:102CB000A4B2AC42F7D30120FFF768FF2846D5E75E
:102CC00010B500F012F900F0FBF80121BDE810404A
:102CD0000846FDF71EBFF3E7F2E70D488169491C7E
:102CE0008161B1F57A7F07D300218161C169491CF7
:102CF000C1618178491C8170704710B56BA000F0EC
:102D0000DDFB00204068BDE810400047F6180020B9
:102D10004C00002020CAB9D3C3B6A8D2E5B5C44937
:102D200050D0C5CFA2C5E4D6C357353530303A0DA3
:102D30000A0000002044484350D7D3B3CCD0F2CE91
:102D4000B4D4CBD0D02CBBF2D5DFB2BBB3C9B9A6BB
:102D50000D0A000020CAB9D3C3B6A8D2E5B5C4494C
:102D600050D0C5CFA2C5E4D6C357353530300D0A93
:102D700000000000205735353030204950B5D8D6F6
:102D8000B72020203A2025642E25642E25642E2588
:102D9000640D0A0020573535303020D7D3CDF8D117
:102DA000DAC2EB203A2025642E25642E25642E25D8
:102DB000640D0A0020573535303020CDF8B9D820C1
:102DC000202020203A2025642E25642E25642E25DF
:102DD000640D0A002049502066726F6D20444843FC
:102DE000500D0A00C000002000000240000C02400C
:102DF000440000203C000020205735353030CEAA5A
:102E000054435020B7FECEF1C6F7A3ACBDA8C1A273
:102E1000D5ECCCFDA3ACB5C8B4FD5043D7F7CEAAD2
:102E200054435020436C69656E74BDA8C1A2C1AC07
:102E3000BDD3200D0A000000205735353030BCE0EE
:102E4000CCFDB6CBBFDACEAAA3BA202564200D0AEA
:102E50000000000020C1ACBDD3B3C9B9A6BAF3A32A
:102E6000AC54435020436C69656E74B7A2CBCDCA95
:102E7000FDBEDDB8F85735353030A3AC57353530A9
:102E800030BDABB7B5BBD8B6D4D3A6CAFDBEDD2026
:102E90000D0A0000556E65787065637465643220B4
:102EA0006C656E67746820300D0A000020CFB5CDC8
:102EB000B3D6D8C6F4D6D0A1ADA1AD0D0A0000009E
:102EC00008B54FF4E060FDF73FFB1C208DF80000D3
:102ED00000208DF8010003208DF8020001208DF8FC
:102EE00003006846FDF735FB08BD3EB501210846E5
:102EF000FDF70FFE4FF47A7001904720ADF8000007
:102F00000020ADF80800ADF802004FF0804469469B
:102F10002046FEF7DBF801212046FEF771FC012276
:102F200011462046FEF75BFC01212046FEF746F9DC
:102F300000210120FDF7EDFD3EBD0000F0B5FF4D85
:102F40000024C5F8AC42FE4B214601224FF6FF7625
:102F5000070402D5C3F8B82201E0C3F8B842C5F8A7
:102F6000B04206EA4000C5F8B022491C1029EFDB48
:102F7000C5F8AC22C3F8B842F0BD70B5F14C0125DC
:102F8000C4F8B052284604F52C74FEF7BEFE0020AB
:102F900020600220FEF7B9FE256070BDE94910B53A
:102FA0000020C1F88002C1F88802C1F8840201241F
:102FB000C1F88C42C1F89002E04AC2F8A802C2F8F7
:102FC000A402C2F8A002C2F8B842DD4BC3F8BC02AA
:102FD000C2F8BC02C3F89C02C3F8A002C3F8A40262
:102FE000C3F8A802C3F8AC02C1F8B402C2F8B40234
:102FF000C2F8B042C2F8AC42C1F89402D24AC2F858
:10300000B402C2F8B002C1F89C0210BD2DE9FC5F09
:1030100001212020FDF75FFD01212820FDF75BFD48
:1030200001211820FDF757FD01211020FDF753FD68
:1030300001213020FDF74FFD01210820FDF74BFD58
:1030400001212220FDF747FD01258DF804500026BF
:103050008DF806608DF8075003208DF805002C03CD
:103060006946BA480094FDF733FB6946B7480095B6
:10307000FDF72EFB042000906946B448FDF728FBBD
:10308000022000906946B148FDF722FB082000901D
:103090006946AE48FDF71CFB102000906946AB481E
:1030A000FDF716FBDFF8A8B2A51069465846009553
:1030B000FDF70EFB4FF4007A69465846CDF800A0A4
:1030C000FDF706FB2711694658460097FDF700FB00
:1030D0004FF4804869465846CDF80080FDF7F8FA6D
:1030E0004FF4004969469B48CDF80090FDF7F0FA8F
:1030F00069465846CDF80090FDF7EAFA4FF080098E
:1031000069469448CDF80090FDF7E2FA6946914887
:103110000097FDF7DDFA69468E48CDF800A0FDF76F
:10312000D7FA69468B48CDF80080FDF7D1FA694699
:1031300088480095FDF7CCFA6710694685480097E6
:10314000FDF7C6FA6500694680480095FDF7C0FAAC
:10315000694658460095FDF7BBFA69465846009403
:10316000FDF7B6FA694658460097FDF7B1FA2020F8
:10317000009069467548FDF7ABFA774F69463846C7
:103180000095FDF7A5FA694638460094FDF7A0FAC8
:1031900069466E48CDF80090FDF79AFA8DF8046004
:1031A00069466C480095FDF793FA694669480094B2
:1031B000FDF78EFA402000908DF80760694663485D
:1031C000FDF786FAFFF7EAFE0120FEF7CCFDFFF7D8
:1031D000D4FE0A20FEF7C7FD4FF40440FFF7AEFE11
:1031E0004FF40640FFF7AAFE48F6AA00FFF7A6FE36
:1031F00048F6AA20FFF7A2FE48F6AA40FFF79EFE77
:1032000048F6AA60FFF79AFEBDE8FC9F10B54D4C4A
:103210000120C4F89C02C4F89C0204F52774FEF750
:1032200074FD002020602060BDE810400120FEF702
:103230006CBD2DE9F0430022404D8946114694466D
:10324000C5F8AC223E4E13464FF6FF78012708EA38
:10325000420208EA4101C5F8B0C2D6F83042012C5A
:1032600001D1521C92B2D6F83442012C01D1491C32
:1032700089B2C5F8B0725B1C102BE8DBC5F8AC72E4
:103280000280A9F80010BDE8F0832DE9F041334E2B
:103290002C4D0124A6F1100704F0070040EA0010AD
:1032A00040F40640FFF74AFEFFF7B0FF02E00120BE
:1032B000FEF72BFDD5F818020128F8D006EB4401E3
:1032C00007EB4400801E891EFFF7B3FF641CE4B2C5
:1032D000092CE1D3BDE8F0812DE9F041204800241C
:1032E000057846E01D48103830F9140000F071FCF4
:1032F0001C4E0022334600F083FC1B4F00223B464D
:1033000000F0E0FA00F0ACFA00F078FD134910315B
:1033100041F82400114830F9140000F05AFC002252
:10332000334600F06DFC00223B4600F0CBFA00F083
:1033300097FA00F063FD0949303117E000804142FF
:10334000000042420080424200804042001402409D
:10335000000C02400010024000040240241900202A
:10336000720000200088B340C0FFDF4041F8240015
:10337000641CAC42B6DBADE77CB501212020FDF733
:10338000AAFB01208DF8040000228DF806208DF89C
:1033900007000320074D4FF4C0648DF8050000942A
:1033A00069462846FDF794F921462846FDF7F5F9C8
:1033B0007CBD00000014024070B586B06846FDF781
:1033C000B5FE01210420FDF7A4FB01210220FDF739
:1033D00082FB364C022206212046FDF7EDF902223F
:1033E00007212046FDF7E8F902218DF81010C020D2
:1033F0008DF8111003908DF8131003A92046FDF7E6
:1034000067F92B4E3046FDF7D3FD00240125ADF8BA
:103410000040ADF808400195ADF802408DF80A4033
:1034200069463046FDF752FE00231A460321304616
:10343000FEF76FFA1E208DF814008DF815408DF8F8
:1034400016408DF8175005A8FDF783F801221146A4
:103450003046FEF7C4F900213046FDF779FE012120
:103460003046FDF7ABFE06B070BD1248008800B2D2
:10347000704770B50F4C01200D4D01466060284625
:10348000FEF7C1F948B128880009C0070BD0288889
:10349000C00602D52068401E20602846BDE8704066
:1034A0000121FEF7BCB92068401CF5E7000402408A
:1034B0000008004074000020704700000FB4044969
:1034C00010B503AA029800F07BF910BC5DF814FB5C
:1034D000340000202DE9F0410646002410687529CB
:1034E000314616A510D0AFF30080002802DA404222
:1034F00013A507E031688A0701D512A502E0490744
:1035000004D511A5012401E0AFF3008000210A22B7
:1035100006F1240709E0B0FBF2FCB0FBF2F302FB7A
:103520001C00303078541846491C0028F3D123463B
:103530002A463046BDE8F04100F0D0B80000000057
:103540002D0000002B000000200000002DE9F05F9E
:10355000894604464FF0000ADFF874B1FB44C0F816
:1035600020A02046E1688847002874D0252806D08E
:10357000D4E901219047206A401C2062F1E700262F
:103580005F462046E16888472028054607DB312D45
:1035900005D2781910F8200C08B10643F1E7B007FE
:1035A00001D526F00406C4F81CA00027C4F818A012
:1035B0002A2D09D0284600F04BF938B304EB8708D0
:1035C000303DC8F8185019E059F8041B204604EBA8
:1035D00087029161E1688847012F054618D1E069AB
:1035E000002820DA26F020061DE0D8F8180000EBAD
:1035F000800005EB40003038C8F818002046E1682C
:103600008847054600F024F90028EED1012F0AD0A2
:103610002E2D08D12046E16888477F1C0546022FE1
:1036200046F02006C4DBA069002803DA404246F0D9
:103630000106A061F00701D026F010066C2D0BD01A
:10364000682D09D04C2D39D06A2D35D0742D35D048
:103650007A2D33D016E038E0E1682F4620468847BF
:10366000B842054609D16C2F26D04FF48060E1683E
:10367000064320468847054604E06C2F1AD04FF4D5
:10368000807006430DB3A5F14100192802D82035FA
:1036900046F400664A462946204626604E46FCF718
:1036A000ADFD80B101280BD0F61D26F0070000F11A
:1036B000080956E74020E4E78020D8E70020D6E755
:1036C00006F104094DE7284652E7206ABDE8F09F5D
:1036D0006809000070477047704770472DE9F04750
:1036E0000D4699469246044600F124080168880672
:1036F00004D5E06921F01001216000E00120A8421A
:1037000001DD471B00E00027A1697A1902EB0900DF
:10371000081AA0612078C00602D42046AFF30080CA
:10372000002608E0D4E901211AF806009047206A33
:10373000401C761C20624E45F4DB2078C0060AD57A
:103740002046AFF3008006E0D4E901213020904705
:10375000206A401C2062381EA7F10107F4DC07E054
:10376000D4E9012118F805009047206A401C206226
:10377000281EA5F10105F3DC2046AFF30080207878
:10378000000602D50220BDE8F0870120FBE700001B
:1037900001694A1C02610878704700B58FB0CDE915
:1037A00001310021059105497944CDE90310114605
:1037B0006846FFF7CBFE0FB000BD0000E5FFFFFF3E
:1037C000074B70B50D467B44FFF7E7FF04462846DC
:1037D00000F008F810B14FF0FF3070BD204670BD0A
:1037E000D5E5FFFF007B00F080007047754600F0D4
:1037F0002BF8AE4605006946534620F00700854683
:1038000018B020B5FCF78EFEBDE820404FF0000652
:103810004FF000074FF000084FF0000B21F00701B8
:10382000AC46ACE8C009ACE8C009ACE8C009ACE8FB
:10383000C0098D46704710B50446AFF3008020469E
:10384000BDE81040FCF7ECBC00487047741900203C
:1038500030380A2801D2012070470020704700004C
:1038600021F00042A2F16052B2F5801F01F0004346
:1038700028BFD2F17F6C0BD95FEA001C43EAC20279
:1038800042EB507018BF704728BF20F0010070470E
:10389000B2F5801FBCBF184670474FEA410C1CF5BB
:1038A000001F02D2084600F00ABB70B500F052FAC1
:1038B00000000089FFF7F6BF4FF00040A0F5800040
:1038C000704700002DE9C04130B4DFF8A0C23CEAE7
:1038D000111418BF3CEA131400F0EC8081EA0305D0
:1038E0001CEA111444EAD57418BF1CEA131500F041
:1038F000C780A4EB05044FF0004545EAC12145EA25
:10390000C32341EA505143EA525304F17F74994270
:1039100004F500344FEAC0204FEAC22208BF9042AB
:1039200000F09C804FEA13650FF24016765D4FEA77
:10393000134506FB05F7C7F1807706FB07F74FEA4B
:10394000D737A7FB03687642C8F58038A7FB06CEB9
:1039500038BFA8F1010807FB08E64FF0000EA6FBF0
:10396000028CE6FB03CEDCF1000CCEF1004E38BF3A
:10397000AEF1010EA6FB0C584FF000074FF000050A
:10398000E6FB0E87A1FB08C6A0FB07CE16EB0E06D2
:1039900045F10005E1FB076515F1E04E7EBFA4F59A
:1039A00080345FEA46066D4116F1800745F1000557
:1039B0004FEA17274FEA066647EA0567A6F1DE4693
:1039C000B6F1805F4FEA15251FD9384624F0010C67
:1039D00005EBC471BCF1FE6F01EB0C1102D8F0BC19
:1039E000BDE8008124425CBF01F5801E9EEAC47FD1
:1039F00002D4F0BCBDE80081244238D4F0BCA1F16F
:103A0000C041BDE8004100F0F3B94FEAD22242EADA
:103A100043524FEAD323A7FB02864FEAD02040EA65
:103A2000415007FB03661EEA0E0F4FEAD12105FB4A
:103A3000026658BFA6EB0056B6EB00564FEA520E90
:103A40004EEAC37E18EB0E0E56EB530EBDD518EBA7
:103A500002085E417F1C55F10005B6E74FF4801562
:103A60004FF000074FF000064FF00008ADE7F0BC44
:103A70004FF0000001F1C04101F00041BDE80081BC
:103A800011EA0C1F0CEA131500D00CE013EA0C1F0E
:103A900000F025804FF00000F0BC81EA030101F046
:103AA0000041BDE80081F0BCBDE8004181EA0301AE
:103AB00000F09EB9F0BCBDE8004170B500F04AF9D5
:103AC000097EFC3E00F007B881EA03014FF00000D8
:103AD00001F00041704781EA030100F089B9F0BCB0
:103AE000BDE800414FF0000021497047FFFDFBF9A0
:103AF000F7F5F4F2F0EEEDEBE9E8E6E4E3E1E0DE21
:103B0000DDDBDAD8D7D5D4D3D1D0CFCDCCCBCAC892
:103B1000C7C6C5C4C2C1C0BFBEBDBCBBBAB9B8B7B9
:103B2000B6B5B4B3B2B1B0AFAEADACABAAA9A8A8AC
:103B3000A7A6A5A4A3A3A2A1A09F9F9E9D9C9C9B7A
:103B40009A99999897979695959493939291919025
:103B50008F8F8E8E8D8C8C8B8B8A898988888787B6
:103B60008685858484838382828181800000FF072B
:103B70000000F87F4FEA41034FEA5353A3F58063F7
:103B8000D3F11E03C8BFD3F1210C0CDD4FF000426E
:103B900042EAC12242EA505232FA03FC8CEAE17C4A
:103BA000ACEBE1707047102BC4BF0020704703F5E9
:103BB000787CBCF1FF3F04D06FF0004282EA210024
:103BC000704770B500F0C6F8499224800020704715
:103BD000F2E710F0004248BF4042B0FA80F310FA1A
:103BE00003F10AD0C3F11D0303F580634FEA41508E
:103BF00002EB035202EBD12170474FF000007047F7
:103C0000DFF848C170B51CEA111E1EBF1CEA13156F
:103C10009EEA0C0F95EA0C0F00F06F8081EA030416
:103C200023EA4C134EEAD47E21EA4C1141F4801170
:103C300043F48013AE44A1FB024CA0FB0365AEF13C
:103C40007F7E361955EB0C05A1FB034C4CF10003AC
:103C5000A0FB021C16EB0C06654153F10003094260
:103C600018BF46F0010613F4007F0BD14FEA033171
:103C70004FEA0530340341EA155140EA16506FF01F
:103C800003020AE04FEAC3214FEAC520F40241EAE9
:103C9000555140EA56506FF0020202EB2E4201EB02
:103CA000025585EACE710AD05FEA440C18BF24F0B1
:103CB000004450F1000041F1000120EAD47040F2CC
:103CC000FE7C624500D270BDA84214BF4FF0804414
:103CD0004FF04044002E08BF0024BEF1806FA8BF03
:103CE000A1F1C041BDE8704080F282804FF0000039
:103CF00001F1C04101F0004170479EEA0C0F0CEA4F
:103D0000131518BF95EA0C0F06D04FF0000081EA9A
:103D1000030E0EF0004170BD00F01CF88900013E5A
:103D200000F007B800F009B84FEA430C5FEA5C5CAA
:103D300008D081EA030100F05BB84FEA410C5FEA6A
:103D40005C5CF6D14FF00000014970470000FF07AE
:103D50000000F87F0EF1020E2EF0030E5EF8046BE9
:103D6000364205D4012A43EB030515F5001F12D88E
:103D7000012841EB010C1CF5001F0CD80ED14FEAB5
:103D8000D17C15F5001F0CEB4C0C0CF1020C08BF9C
:103D90004CEBD37C04E04FF0080C01E04FEAD37CFD
:103DA0000CEB4C0526FA05F606F00706B6F1040CF6
:103DB00006D20EEB860CBDE870404CF0010C60475B
:103DC000DFE80CF0090B02024FF000414FF0000059
:103DD000A1F5002170BD19461046012851EB0104E0
:103DE00018BFD4F5001484BF002001F0004170BD5D
:103DF0000808A0F500114FEA3101704741000B0E91
:103E0000D3F19E0208D950F400034FEA032323FAAA
:103E100002F048BF4042704710B500F00AF800BFFA
:103E200049922480002070476FF0004282EA20000F
:103E300070470EF1020E2EF0030E5EF8044B244282
:103E400004D44FEA4102B2F17F4F11D84FEA400348
:103E5000B3F17F4F0CD80ED14FEAD07CB2F17F4F37
:103E60000CEB4C0C0CF1020C08BF4CEBD17C04E0C9
:103E70004FF0080C01E04FEAD17C0CEB4C0324FA24
:103E800003F404F00704B4F1040C06D20EEB840C26
:103E9000BDE810404CF0010C6047DFE80CF007086B
:103EA00002024FF00040A0F5800010BD084642001D
:103EB00018BFD2F1807288BF00F0004010BDFF2112
:103EC00041EAD050C005704704000008000000001F
:103ED000000000020001000010000000FC3E00088D
:103EE000000000207C000000C4010008783F0008AA
:103EF0007C0000205C1F0000E001000800000000C2
:103F0000007A030A00000000000000000102030420
:103F1000060708090000000001020304010203046F
:103F20000607080900000000000000000000000073
:103F30000000000000000000020202020202020271
:103F40000202020202020202000000008813C0A85E
:103F50000058FFFFFF00C0A80001727272720000DB
:103F600000000000000000000008DC111111080032
:083F7000000000000000000049
:040000050800018965
:00000001FF
